:030000000201A951
:0C01A900787FE4F6D8FD7581560201F065
:06036B0002130000C100B6
:0B051700EF1FAC0670011E4C70F622B6
:1003E900E4FDD2A37F08FE120517C2A37F507E0049
:1003F900120517D2A37F0E7E00120517A2A3E433BC
:0A040900FD7F147E00120517AF05F9
:0104130022C6
:02048900AD07BD
:10048B00E4FBC2A3ED1392A37F057E00120517D2E6
:09049B00A3EDC313FD0BBB08E93E
:0104A4002235
:10046300E4FDD2A300FBC2A3EDC313FDD2A300009E
:1004730030A3034305807F1E7E00120517D2A30B12
:05048300BB08E3AF051A
:010488002251
:1003BC001203E9BF0103C200227FCC1204897F44DF
:1003CC001204891203E97FCC1204897FBE120489BE
:0D03DC001204638F131204638F14D20022E9
:1004EB0000010102030304040506060708080909B5
:100371000D2E43757272656E742054656D703A0E60
:100381003B4D617820736166652054656D703A0E4E
:10039100494D696E20736166652054656D703A043C
:1003A1002100000000042A000000000426000000D3
:0103B100004B
:0F0414008F807F017E00120423D2A27F057E001D
:10042300D3EF9400EE9400400F7DC77C01DCFEDD2A
:08043300FAEF1F70EB1E80E8D8
:01043B00229E
:0C050B00C2A2C2A1C2A0120414C2A2220B
:0C04BE007FC712050B7FDF1204CA7F43CA
:0C04CA00C2A2C2A1D2A0120414C2A2223D
:1004A5007F3812050B7F0C12050B7F0612050B7F9B
:0904B5000112050B7F8002050B0A
:10010000C201E51454F0FFBFF00B6314FFE513F4D4
:1001100004F513D201E513540F9004EB93F521E598
:1001200014540FC454F0FFE51354F0FEC4540F4FA1
:10013000F52575F06484F524E52575F06484E5F013
:1001400075F00A84F523E52575F00A8485F02230E0
:100150000107750A2DC2018003750A20E524700588
:10016000750B208006E5242430F50BE5237009E5A6
:10017000247005750C208006E5232430F50CE5225B
:100180002430F50D750E2EE5212430F50F7FC012B9
:10019000050BE4FB740A2BF8E6FF1204CA0BBB063E
:0901A000F31204BE7F8002050B7E
:1002350085212AE51175F06484F52DE51175F064C5
:1002450084E5F075F00A84F52CE51175F00A8485CE
:10025500F02BE52D7005750A208006E52D2430F577
:100265000AE52C7009E52D7005750B208006E52C37
:100275002430F50BE52B2430F50C750D2EE52A24DD
:1002850030F50E7FC012050BE4FB740A2BF8E6FF70
:0F0295001204CA0BBB05F31204BE7F8002050BD7
:1002A400852126E51075F06484F529E51075F06460
:1002B40084E5F075F00A84F528E51075F00A848564
:1002C400F027E5297005750A208006E5292430F514
:1002D4000AE5287009E5297005750B208006E528D4
:1002E4002430F50BE5272430F50C750D2EE5262476
:1002F40030F50E7FC012050BE4FB740A2BF8E6FF01
:0F0304001204CA0BBB05F31204BE7F8002050B67
:10000300E4F5B012043C1204FBEF146062147003B5
:100013000200BA240260030200FF1204A5E5126085
:10002300030200FFE590F460030200FF1203BC30FB
:100033000023E4F508F509742E2509F8E6FF1204F8
:10004300CA0509E50970020508C3940DE508940083
:1000530040E5120100E525D395115007E525C39529
:100063001050BA7F5A1204D67F781204D680AE128B
:1000730004A5E512640160030200FFE590F4600C3F
:10008300E59064FD6006E59064FB707012043C1219
:100093000313E4F508F509743B2509F8E6FF120498
:1000A300CA0509E50970020508C3940EE508940022
:1000B30040E512023580BB1204A5E5126402703CD0
:1000C300E590F4600CE59064FD6006E59064FB70D8
:1000D3002B12043C120313E4F508F50974492509AE
:1000E300F8E6FF1204CA0509E50970020508C3947E
:0C00F3000EE508940040E51202A480BE57
:0100FF0022DE
:0903B20001120001114B011019A8
:10043C00E4FFE590F4601FE4FDFCC3ED940AEC943A
:10044C00005007ED1D70F31C80F0E590F46007AFD1
:06045C0090E590B4FFFBE7
:010462002277
:0F04FB00BFFE0A0512E512B40303E4F512AF12B7
:01050A0022CE
:10031300EF64FD702CE51264016005E512B402215F
:10032300E512B4010A0511E511B48003751180E5E6
:1003330012640270320510E5106480702A75108013
:1003430022EF64FB7021E51264016005E512B4023B
:1003530016E512B40106D51103E4F511E512B40252
:0703630006D51003E4F510BC
:01036A002270
:1004D600E4FEB2B7E4FDEDC39F50030D80F8B2B65B
:0404E6000EBEC8EE90
:0104EA0022EF
:0505220012000380FB44
:1001B500020522E493A3F8E493A34003F68001F239
:1001C50008DFF48029E493A3F85407240CC8C3334B
:1001D500C4540F4420C8834004F456800146F6DF1A
:1001E500E4800B010204081020408090036BE47E3C
:1001F500019360BCA3FF543F30E509541FFEE4930F
:10020500A360010ECF54C025E060A840B8E493A3D5
:10021500FAE493A3F8E493A3C8C582C8CAC583CA00
:10022500F0A3C8C582C8CAC583CADFE9DEE780BEB8
:0103BB000041
:00000001FF
